:020000040802F0
:101C0000A0AF0020511F0208A7710208816B0208D3
:101C1000A5710208F53B020865800208000000007B
:101C2000000000000000000000000000B91E0208D3
:101C3000FD42020800000000FD1E0208D9790208DA
:101C40006B1F02086B1F02086B1F02086B1F020844
:101C50006B1F02086B1F02086B1F02086B1F020834
:101C60006B1F02086B1F02086B1F0208313F02083E
:101C70006B1F02086B1F02083D3F0208493F020824
:101C8000553F0208613F02086B1F02086B1F0208E4
:101C90006B1F02086B1F02086B1F02086B1F0208F4
:101CA0006B1F02089D7A02086B1F02086B1F020857
:101CB0006B1F02086B1F02086B1F02086B1F0208D4
:101CC0006B1F02086B1F02086B1F02086B1F0208C4
:101CD0006B1F0208117F0208717F02086B1F020848
:101CE0006B1F02086B1F02086B1F02086B1F0208A4
:101CF0006B1F02086B1F02086B1F02086B1F020894
:101D00006B1F02086B1F02086B1F02086B1F020883
:101D10006B1F02086B1F02086B1F02086B1F020873
:101D20006B1F02086B1F02086B1F02086B1F020863
:101D300000F002F800F0B0F80AA090E8000C82442D
:101D40008344AAF10107DA4501D100F0A5F8AFF20A
:101D5000090EBAE80F0013F0010F18BFFB1A43F089
:101D6000010318478CB50000ACB500000A444FF0E1
:101D7000000C10F8013B13F0070408BF10F8014BEA
:101D80001D1108BF10F8015B641E05D010F8016B2F
:101D9000641E01F8016BF9D113F0080F1EBF10F893
:101DA000014BAD1C0C1B09D16D1E58BF01F801CBB6
:101DB000FAD505E014F8016B01F8016B6D1EF9D539
:101DC0009142D6D37047000000230024002500264E
:101DD000103A28BF78C1FBD8520728BF30C148BF8E
:101DE0000B6070476E2900F00D83702900F0578456
:101DF00066290AF0A48665290AF0A18667290AF0F7
:101E00009E8661290AF09D8603681B0A28BF41F05F
:101E10008001692900F0BA82642900F0B78275292F
:101E200000F0B4826F2900F0E483782900F0238465
:101E3000E92900F07F83E42900F07C83F52900F094
:101E40007983EF2900F0E183F82900F02284036808
:101E5000DB0928BF41F08001632901F02581732946
:101E600001F02A81E32901F03581F32901F03A815B
:101E7000002070471FB501F087F904000020002101
:101E80000AF0A0F8401C6060002000210AF084F8ED
:101E9000E0601FBD10B510BD01F048F91146FFF715
:101EA000E9FF06F011FA01F025FA03B4FFF7F2FF9B
:101EB00003BC01F02DFA0000224B19680868B0E855
:101EC000F00F80F30988BFF36F8F4FF0000080F3AD
:101ED00011884EF00D0E70470000000006480068A3
:101EE000006880F3088862B661B6BFF34F8FBFF316
:101EF0006F8F00DF00BF00BF08ED00E0EFF3098047
:101F0000BFF36F8F0F4B1A6820E9F00F106008B510
:101F10004FF0500080F31188BFF34F8FBFF36F8FE6
:101F200009F034F94FF0000080F31188BDE8084053
:101F300019680868B0E8F00F80F30988BFF36F8F65
:101F4000704700BF30020020EFF3058070470000AB
:101F50000948804709480047FEE7FEE7FEE7FEE73D
:101F6000FEE7FEE7FEE7FEE7FEE7FEE70448054979
:101F7000054A064B704700008D7A0208311D0208A1
:101F8000A08E0020A0AF0020A08F0020A08F0020F6
:101F9000B2F120030AD5C2F1200320FA02F001FABF
:101FA00003F321FA02F140EA0300704721FA03F03B
:101FB0004FF00001704700007CB51D4616460C002E
:101FC000009001D02044401E074B7B442A466946BE
:101FD0000190304600F02FFA05461CB100206946FA
:101FE00000F03CFA28467CBD9904000010B5431C63
:101FF00002E010F8011B71B18107FAD14FF00132F4
:1020000002C88C1A8C4314EAC211F9D0C01A0A060D
:1020100003D0C01E10BDC01A10BD0A0401D0801E1E
:1020200010BD0902FCD0401E10BD40EA010370B58E
:102030009B072ED14FF00136042A2AD308C810C9B5
:102040009D1B9D43121F15EAC61517D0D8B2E1B2E9
:10205000401A50EA056110D198B2A1B2401A50EA74
:1020600005410AD123F07F4024F07F41401A50EA15
:10207000052102D1180EA0EB146070BDA342DBD085
:1020800018BA21BA884201D9012070BD4FF0FF3043
:1020900070BD0AB9002070BD10F8013B11F8014B6A
:1020A00063B1A3420AD1521E08D010F8013B11F8C7
:1020B000014B1BB1A34201D1521EEDD1181B70BDC3
:1020C000032A40F2308010F0030C00F0158011F864
:1020D000013BBCF1020F624498BF11F801CB00F83C
:1020E000013B38BF11F8013BA2F1040298BF00F890
:1020F00001CB38BF00F8013B11F0030300F025804D
:10210000083AC0F0088051F8043B083A51F804CB73
:10211000A0E80810F5E7121D5CBF51F8043B40F839
:10212000043BAFF30080D20724BF11F8013B11F844
:1021300001CB48BF11F8012B24BF00F8013B00F888
:1021400001CB48BF00F8012B704710B5203AC0F012
:102150000B80B1E81850203AA0E81850B1E81850A8
:10216000A0E81850BFF4F5AF5FEA027C24BFB1E8E5
:102170001850A0E8185044BF18C918C0BDE8104056
:102180005FEA827C24BF51F8043B40F8043B08BF5F
:102190007047D20728BF31F8023B48BF11F8012B26
:1021A00028BF20F8023B48BF00F8012B70474FF0D2
:1021B00000020429C0F0128010F0030C00F01B8014
:1021C000CCF1040CBCF1020F18BF00F8012BA8BF22
:1021D00020F8022BA1EB0C0100F00DB85FEAC17CE6
:1021E00024BF00F8012B00F8012B48BF00F8012B99
:1021F00070474FF0000200B51346944696462039CA
:1022000022BFA0E80C50A0E80C50B1F12001BFF4AF
:10221000F7AF090728BFA0E80C5048BF0CC05DF815
:1022200004EB890028BF40F8042B08BF704748BF63
:1022300020F8022B11F0804F18BF00F8012B7047D7
:102240004FF0013C50F8042B51F8043B9A4221D145
:10225000A2EB0C03934313EACC1317D150F8042BD1
:1022600051F8043B9A4215D1A2EB0C03934313EAB5
:10227000CC130BD150F8042B51F8043B9A4209D1EE
:10228000A2EB0C03934313EACC13DBD04FF0000016
:10229000704700BFD01A01BAB1FA81F101F01801FC
:1022A00022FA01F0CB40C1F12001DBB2C0B2C01A6A
:1022B0002CFA01F3D11A914311EAC311E6D1704708
:1022C00070477047704770B5044685690068C1065D
:1022D00001D5302600E02026C00707D070BDD4E924
:1022E000012130469047206A401C20626D1EF6D5C1
:1022F00070BD70B5044685690078C00707D170BD10
:10230000D4E9012120209047206A401C20626D1EE4
:10231000F6D570BD09684A0501D540B27047C905B8
:10232000FCD500B2704709684A0501D5C0B27047B4
:10233000C905FCD580B2704770B50C460546012A28
:1023400005D02878800600D5EA69002302E0012341
:1023500005E05B1C934202D2E05C0028F9D1A86939
:10236000E618C01AA861286A184428622846FFF7B0
:10237000AAFF04E0D5E9012114F8010B9047B4420B
:10238000F8D32846FFF7B5FF70BD00002DE9F041F6
:102390000646002410687529314616A510D0FFF7AF
:1023A000B9FF002802DA404213A507E031688A0726
:1023B00001D512A502E0490704D511A5012401E0C9
:1023C000FFF7B1FF00210A2206F1240709E0B0FB64
:1023D000F2FCB0FBF2F302FB1C00303078541846DC
:1023E000491C0028F3D123462A463046BDE8F04177
:1023F00000F069BA000000002D0000002B00000072
:102400002000000011680268006A530501D50870B9
:102410000AE0D30501D5088006E0130603D5C217EC
:10242000C1E9000200E008600120704701694A1C10
:1024300002610878704700B58FB0CDE90131002105
:10244000059105497944CDE903101146684600F02D
:1024500031F90FB000BD0000E5FFFFFF0A6802F888
:10246000010B0A607047D1E900239A4202D2531C43
:102470000B601070704700002DE9FF5F15468A461B
:102480000446DFF8AC80F8440027D8E900103E4647
:10249000CDE9001010E03AF816106A4602A800F0E4
:1024A00025FE411C07D02178890603D5E269391839
:1024B00091420DD80744761C2078800602D5E06949
:1024C000B84205DDAE42E6DB3AF816000028E2D15C
:1024D000A069C01BA0612046FFF7F5FED8E90010F7
:1024E000CDE90010002017E03AF818106A4602A85B
:1024F00000F0FCFDB0F1FF3F81460BD000250DF14F
:10250000080B05E0D4E901211BF8050090476D1C7C
:102510004D45F7D308F10100B0428046E4DB206A64
:10252000384420622046FFF7E4FEBDE8FF9F00002C
:102530007AAA00002DE9F0418046D21D22F0070260
:102540000025D2E90002F52915A614D0011E72F16A
:10255000000106DA0023D0EB030063EB020211A6B0
:1025600008E0D8F800108B0701D50FA602E0490754
:1025700001D50EA601251146002408F1240704E028
:1025800000F05CF930323A55641C50EA0102F7D190
:102590002B46324621464046BDE8F04100F093B953
:1025A000000000002D0000002B00000020000000B3
:1025B00030B4002100F1240408E002F00705D2083D
:1025C000303542EA4372DB086554491C52EA030580
:1025D000F3D10468002310A2250707D5A40600D470
:1025E00021B1C46901230DA2641EC46130BC00F096
:1025F0006AB910B5044621461068FFF794FE0246FA
:102600002046BDE810400023D2E7D21D22F007018A
:10261000D1E90023CCE700000000000030000000FA
:10262000F0B40D460188090502D5214C7C4402E036
:102630001F4C7C440E34002100F1240608E002F017
:102640000F071209E75D42EA03721B097754491C20
:1026500052EA0307F3D102780023120704D5702D44
:1026600006D009B1022311342246F0BC00F02BB988
:1026700001231034F8E770B504460D462146106872
:10268000FFF751FE024629462046BDE87040002370
:10269000C6E7D21D22F00703D3E90023C0E7036891
:1026A000126843F0200303600823C3610023B7E7E7
:1026B000DCA800002DE9F05F894604464FF0000ACF
:1026C000DFF874B1FB44C0F820A02046E1688847D9
:1026D000002874D0252806D0D4E901219047206A2B
:1026E000401C2062F1E700265F462046E1688847EB
:1026F0002028054607DB312D05D2781910F8200C6B
:1027000008B10643F1E7B00701D526F00406C4F886
:102710001CA00027C4F818A02A2D09D0284605F0CF
:10272000F1FC38B304EB8708303DC8F8185019E0C5
:1027300059F8041B204604EB87029161E168884741
:10274000012F054618D1E069002820DA26F020067E
:102750001DE0D8F8180000EB800005EB4000303891
:10276000C8F818002046E1688847054605F0CAFC0D
:102770000028EED1012F0AD02E2D08D12046E16885
:1027800088477F1C0546022F46F02006C4DBA0695F
:10279000002803DA404246F00106A061F00701D0AC
:1027A00026F010066C2D0BD0682D09D04C2D39D099
:1027B0006A2D35D0742D35D07A2D33D016E038E01F
:1027C000E1682F4620468847B842054609D16C2F5C
:1027D00026D04FF48060E1680643204688470546CE
:1027E00004E06C2F1AD04FF4807006430DB3A5F1AE
:1027F0004100192802D8203546F400664A46294689
:10280000204626604E46FFF7EDFA80B101280BD036
:10281000F61D26F0070000F1080956E74020E4E71E
:102820008020D8E70020D6E706F104094DE72846C6
:1028300052E7206ABDE8F09F6CA8000030B5B0F107
:102840000A024FEA900E71F100034EEA817EB0EB6E
:102850000E0061EB91014FEA101E4EEA017E10EB73
:102860000E0041EB11114FEA102E4EEA016E10EBF3
:102870000E0041EB11214FEA104E4EEA014E10EBD3
:102880000E0041EB1141401841F100014FEAD00028
:1028900040EA41704FEAD10110EB80054FEA810414
:1028A00044EA907444EB01046D1944EB0404521B98
:1028B000A3414FF0000348BF0A3200D530BD401C91
:1028C00041F1000130BD2DE9F0470D469946924691
:1028D000044600F124080168880604D5E06921F067
:1028E0001001216000E00120A84201DD471B00E04B
:1028F0000027A1697A1902EB0900081AA061207863
:10290000C00602D42046FFF7DEFC002608E0D4E92A
:1029100001211AF806009047206A401C761C2062AC
:102920004E45F4DB2078C0060AD52046FFF7CBFCE5
:1029300006E0D4E9012130209047206A401C206243
:10294000381EA7F10107F4DC07E0D4E9012118F8EB
:1029500005009047206A401C2062281EA5F1010551
:10296000F3DC2046FFF7C5FC2078000602D50220E4
:10297000BDE8F0870120FBE770472DE9FF4F0C46CB
:102980001E464FF0FF378BB0D2E90001DDF86080C2
:102990000A908A46C1F30A5505B93D46002108460A
:1029A0004FF00000BAF1000F00F4400005DA00EB30
:1029B00080004FF4400101EA50004FEA9059B9F10C
:1029C000010F00DDB9460A9850EA4A000ED044F6DD
:1029D0001050A5F2FF3545432F14B8F1000F1ED05B
:1029E0007542291E1EDDC9F100021CE0B8F1010F7D
:1029F0004FF0000001D0302103E0F24305E0215404
:102A0000401CB042FBDB30460022002121540B99D0
:102A1000C1F80880C1E900200FB0BDE8F08FBD1BF0
:102A20006D1CDEE74A4600DA694206A800F0F0FBBA
:102A300006AB93E8070003AB83E8070050460A990A
:102A400000F06DFC8DE80700A0F500501F380090E5
:102A50000398002D0ADD42F21F014A460844002374
:102A600003A90390684600F0D6FE09E0A0F50050E7
:102A70004A461F38002303A90390684600F0E0FE91
:102A80008DE807000004000C03D04FF0FF30410830
:102A900000E01046B8F1000F03D000220092154666
:102AA0001EE0751E05D4FFF7C9FE303262556D1E5B
:102AB000F9D5B3460122084302D000227F1C04E06E
:102AC0002078302801D100227F1E002A099784D067
:102AD0001DE0112D07DAFFF7B1FE303262556D1C93
:102AE00050EA0102F5D1084302D00098C8B10EE0C7
:102AF0000021681E05E0235C625C63542254401E82
:102B0000491C8142F7DBAB46A81B401E0990002000
:102B100004F80B000B98099AC0F80880C0E9002B54
:102B20007AE711264FF0000857E72DE9F04F884665
:102B30000446D21D22F0070191B0D1E90001CDE990
:102B40000A0105F0BBFA02460B98C00F01D02D20F8
:102B500007E02068810701D52B2002E0202101EA4F
:102B6000C000032A099001D0072A05DB034641462D
:102B7000204600F00DFB0BE12078800601D5E069CE
:102B800000E00620B8F1650F814606D0B8F1660F67
:102B900018D0B8F1670F70D131E00020B9F1110FF2
:102BA000009001DB112301E009F101030AAA01A948
:102BB0000CA8FFF7E2FEDDE90C70002609F1010523
:102BC000834647E001204B4600904FF000470AAA99
:102BD00001A90CA8FFF7D1FEDDE90DB00C995D4607
:102BE000002610B909F101000D18B9EB050003D456
:102BF000C0F1FF3609F10105A5EB09002BE0B9F1A1
:102C0000010F01DA4FF001090020B9F1110F009016
:102C1000484601DD112300E003460AAA01A90CA8D9
:102C2000FFF7ABFEDDE90C704D46002683462078A9
:102C300000070AD4AB4500DA5D4601A8012D04DD8A
:102C4000411911F8011C302907D04F4502DA17F15C
:102C5000040F04DA012082460FE06D1EEEE7002F1C
:102C600002DCED1B3E4403E0781CA84200DD7D1C25
:102C7000B81B00F1010A4FF000472078000703D489
:102C8000AA4501DB4FF0FF3A0021B7F1004F0DF1EB
:102C900043088DF8431024D002202B23002F01DAA3
:102CA0007F422D230A21021EA0F1010000DC5FB14A
:102CB00097FBF1FC97FBF1F201FB1C7C17460CF132
:102CC000300C08F801CDEEE7A8F10100037021886F
:102CD000090501D5452100E06521A0F1010800F8B2
:102CE000011C09980FA9A1EB0807FF1D00B10120E5
:102CF000411901EBEA70A1693844081A401EA0612D
:102D00002078C00602D42046FFF7DDFA099828B1E2
:102D1000D4E901219047206A401C20622078C00637
:102D200022D52046FFF7CFFA1EE0002E04DBB34584
:102D300002DD01A8805D00E03020D4E90121904748
:102D4000206A401C2062761CAAF101005FEA000A9A
:102D50000AD100F019FAC0680168405CD4E9012189
:102D60009047206A401C2062281EA5F10105DCDC8A
:102D700007E0D4E9012118F8010B9047206A401CB4
:102D80002062381EA7F10107F3DC2046FFF7B1FAF5
:102D9000032011B041E600002DE9F04F04460D4636
:102DA000D21D22F0070089B0D0E900974846394685
:102DB00005F084F90246F80F01D02D2307E02068C2
:102DC000810701D52B2302E0202101EAC0038DF801
:102DD00020300BB1012000E00020032A824601D000
:102DE000072A04DB2946204600F0D2F93FE120788B
:102DF000800601D40D2500E0E569C7F30A560D2DC4
:102E000049DA00214FEA175B08464FF00000002F17
:102E100000F4400007DA00EB80004FF4400100EBC3
:102E2000D07001EA60008115012901DD4FF0FF310A
:102E300000224FEA850CBCF1180F06D31346ACF103
:102E400018004FF08052C24003E04FF4801323FA81
:102E50000CF30CF10C0CBCF1200F04D3ACF1200CE2
:102E600009FA0CF001E007FA0CF000294FF00048D5
:102E700001DD18B90FE00ED140450CD319EB020962
:102E80005F4121B9404502D19F4329EA0209BBEBCA
:102E9000175F00D0761C2088000502D57B48784457
:102EA00002E07A487844193808AA302302F80A3038
:102EB000037C0AF10101002E0AF1020A53546A460A
:102EC00002DC4FF0300101E04FF031014FF001081A
:102ED0008DF8001002D0A6F2FF3603E059EA470150
:102EE00000D06B4E002D02DC2178090704D54FF08D
:102EF00002082E218DF80110C44600210BE0C7F313
:102F000003433F01C35C491C6D1E02F808300529CC
:102F100008F1010801DA002DF1DC00210CE000EBE2
:102F20001973491C1B786D1E082902F808304FEAF6
:102F3000091908F1010801DA002DF0DC21688B067F
:102F400002D516E0A8F10108E04505DD02EB080313
:102F500013F8013C302BF5D0B8F1000F09DD02EB7E
:102F6000080313F8013C2E2B03D1090701D4A8F163
:102F70000108002D05DD3E2102F808106D1E08F144
:102F80000108407C002E02F8080008F1010804DA6C
:102F90002D20764202F8080002E02B2002F80800FB
:102FA0000A214FF47A70864208F101080BDB96FB88
:102FB000F0F3303302F8083096FBF0F308F1010823
:102FC00000FB136601E0642E0CDB642096FBF0F33B
:102FD000303302F8083096FBF0F308F1010800FBEB
:102FE000136601E00A2E06DB96FBF1F0303002F8A2
:102FF000080008F1010896FBF1F001FB1060303089
:1030000002F80800A16908F1010808EB050202EBCB
:103010000A00081AA0612078C00602D42046FFF7F3
:1030200052F9216A08AE01EB0A00206204E0D4E9FB
:10303000012116F8010B9047BAF1010AF7D2207866
:10304000C00602D52046FFF73EF96E4609E016F8A5
:10305000010B3E280FD0D4E901219047206A401C83
:103060002062B8F10108F2D22046FFF742F909B018
:103070000320BDE8F08F206A2844206203E0D4E9F1
:103080000121302090476D1EEBD3F8E7B6A0000079
:1030900002FCFFFF10B5436913B1AFF3008001E0FC
:1030A000FFF74AF9012010BD127800F124010A70DF
:1030B00000224A700122EDE711684FF0FF32E9E784
:1030C00010B5436913B1AFF3008001E0FFF7D4F905
:1030D000012010BD128800F1240182840022C284E4
:1030E0000122EDE711684FF0FF32E9E770B51646AF
:1030F0000C46054600F040F8036893F801010128EA
:1031000006D0FF2C0FD8185D68B101202C7070BD5F
:10311000D3F807013246214603F207130344284639
:10312000BDE8704018474FF0FF3070BD754600F0A5
:10313000EBF8AE4605006946534620F00700854689
:1031400018B020B5FEF712FFBDE820404FF0000692
:103150004FF000074FF000084FF0000B21F007017F
:10316000AC46ACE8C009ACE8C009ACE8C009ACE8C2
:10317000C0098D467047000010B500F005F8001D2D
:1031800010BD00BF418E000000487047608E0020D7
:103190002DE9F0411F46044603260168072A01F481
:1031A000006004DB08B116A505E016A503E008B130
:1031B00015A500E015A521F010002060A069C01E33
:1031C000A0610FB1401EA0612046FFF77CF84FB10F
:1031D000D4E9012138469047206A401C2062C01C77
:1031E000206206E0206AFAE7D4E9012115F8010B14
:1031F0009047761EF8D22046FFF77BF8BDE8F081B5
:103200004E414E006E616E00494E4600696E66008A
:103210002DE9F047814616468AB0354878440DC8F6
:103220008DE80D0032487844801C03AC0DC884E85A
:103230000D0041F69B300844372190FBF1F290FBE2
:10324000F1F5A5F1800501FB12041B3C02D5644297
:10325000012000E00020DFF898A080460027FA4413
:10326000AAF1BE0A0EE0E0070AD03246684607EB34
:10327000470101230AEB810100F0E2FA8DE8070023
:1032800064107F1C002CEED1194F7F44AE3F19E033
:10329000E80715D007EB04100DF1180A90E80E00AE
:1032A0008AE80E00C068F04201D1981908903246B1
:1032B000012306A903A800F0C3FA03AB83E80700C3
:1032C0006D10641C002DE3D14FF0010332466946B6
:1032D000B8F1000F03A802D000F09DFA01E000F061
:1032E000AFFAC9E90001C9F808200AB0BDE8F087C3
:1032F000C89D000010B50446AFF300802046BDE82D
:103300001040FEF7D2BD000000487047408E0020FC
:1033100001491820ABBEFEE72600020070475FEAB5
:10332000400C08BF91F0000F4FEA8C234FEAC122F6
:1033300043EA51514FEA1C5018BF00F5F0404FEAE4
:10334000300018BF41F000415FEA6C5C00F029805A
:10335000BCF1FF3F08BF40F080407047130C06BF30
:1033600012044FF0100C4FF0000C130E04BF1202A9
:103370000CF1080C130F04BF12010CF1040C930F95
:1033800004BF92000CF1020CD30F04BF52000CF1E9
:10339000010C11464FF00002A0F11F00A0EB0C0041
:1033A000704711F0004F08BF704731F000413FF403
:1033B000D5AF0B0C06BF09044FF0100C4FF0000CFA
:1033C0000B0E04BF09020CF1080C0B0F04BF09011E
:1033D0000CF1040C8B0F04BF89000CF1020CCB0F15
:1033E00004BF49000CF1010CCCF12003A0EB0C0050
:1033F00022FA03F302FA0CF241EA030100F10100A0
:10340000704720F07F4C80EA030023F07F47ACEB4D
:10341000070303F57C5300F0004003F1FF032DE99F
:1034200080494FEA154B09B44FEA144325EA0B4E85
:1034300024EA03480FF2042606EB132749083E78D6
:103440005FEA320203FB0667C7F5000707FB06F6D3
:103450004FEA54374FEAD64606F1020607FB066CE0
:10346000CCF1005C4FEA1C472CEA074C07FB06F442
:103470000CFB06F504EB15464FEA961634BF002008
:103480004FF000404FEAD13706FB07FC4FEA1C4CD7
:103490000CFB0BF7D21B03FB0CF761EB07010CFBDA
:1034A0000EF7B0EB074072EB17420CFB08F734BF86
:1034B000A2EB0742B2EB074261EB17414FEA0C4423
:1034C0004FEA910706FB07FC4FEA1C4C0CFB0BF77D
:1034D000B0EBC74072EB573203FB0CF734BFA2EBE3
:1034E000C742B2EBC74261EB57310CFB0EF7B0EBB2
:1034F000C70072EB57720CFB08F734BFA2EBC70290
:10350000B2EBC70261EB5771039F4FEA816141EA59
:10351000921104EBCC044FEAD1374FEA826206FBEA
:1035200007FC42EA90124FEA80604FEA1C4C0CFB09
:103530000BF7D21B03FB0CF761EB07010CFB0EF73B
:10354000B0EB074072EB17420CFB08F734BFA2EB5D
:103550000742B2EB074261EB17414FEA8C554FEA45
:10356000910704EB9C2406FB07FC4FEA1C4C0CFB68
:103570000BF7B0EBC74072EB573203FB0CF734BFCD
:10358000A2EBC742B2EBC74261EB57310CFB0EF71F
:10359000B0EBC70072EB57720CFB08F734BFA2EB1D
:1035A000C702B2EBC70261EB577115EB4C254FEA2E
:1035B000816141EA92114FEA82624FEAD13742EAD1
:1035C000901206FB07FC44F100044FEA80604FEACA
:1035D0001C4C0CFB0BF7D21B03FB0CF761EB070138
:1035E0000CFB0EF7B0EB074072EB17420CFB08F731
:1035F00034BFA2EB0742B2EB074261EB174115EB78
:103600001C154FEA813141EA92414FEA823242EA87
:1036100090424FEA80304FEA0C7644F1000448EAC9
:1036200003434EEA0B484FF0000EB2EB080C71EB6F
:10363000030724BF624639464EEB0E0E4FF0000BD7
:103640000018524149414BEB0B0BB2EB080C71EBEC
:1036500003077BF1000B24BF624639464EEB0E0E8A
:103660004FF0000B0018524149414BEB0B0BB2EBF2
:10367000080C71EB03077BF1000B24BF624639464F
:103680004EEB0E0E51EA020718BF46F0010616EB8C
:103690000E7655F1000254F1000103D5BDE8890111
:1036A000BDE80088BDE88901BDE80048B61952416F
:1036B00041EB0101A3F10103704780807F7E7D7C97
:1036C0007B7A7978777676757473727171706F6EB4
:1036D0006E6D6C6C6B6A6A6968686766666564645F
:1036E000636362616160605F5F5E5E5D5D5C5C5BE9
:1036F0005B5A5A5959585857575656555555545458
:10370000535352525251515050504F4F4F4E4E4DB5
:103710004D4D4C4C4C4B4B4B4A4A4A494949484801
:103720004847474747464646454545444444444341
:1037300043434342424242414141002B9C4630D4E4
:1037400077002BD01CB54FEA370703B44FF01000B9
:103750004FF01001BAF1000F06D0BCF1000FDCBF32
:1037600040F0080040F008014FF000000FBCBDE839
:1037700010400BF1010BBBF1010F08BF5FEA170707
:1037800022BF12F1010211F101014FF0004143F19A
:10379000000300F0004043EA00007047F9D35708E7
:1037A000D0E746EA064613F1400F4FEA16461FDD02
:1037B00013F1200FDFBF16430A46002120335B427E
:1037C000BED0C3F1200746EA064602FA07F74FEAE1
:1037D000164646EA0706C3F1200722FA03F201FA69
:1037E00007F721FA03F14FF0000342EA0702A7E7C7
:1037F00046EA020646EA06464FEA164646EA010649
:10380000BCBF46EA0646360C4FF000034FF00002FC
:103810004FF0000194E72DE9804C9A46934670B42E
:1038200091E8380007C831EA400C48BF34EA430C3D
:1038300003D5FFF7E6FDFFF780FFF0BCBDE8008C85
:103840002DE9804C9A46934670B491E8380007C839
:1038500010F0804F08BF13F0804F03D100F005F83F
:10386000FFF76BFFF0BCBDE8008C20F07F4780EADB
:10387000030023F07F4C07EB0C03A3F57C5300F00F
:103880000040A3F1FE0392F0000F00F0B38095F02A
:10389000000F00F077802DE901494FEA11404FEA0F
:1038A000144621EA004800FB06FC24EA064708FB10
:1038B00006F607FB08F800FB07F718EB06484CEB89
:1038C000164C4FEA124B18EB07484FEA15464CEBE3
:1038D000174022EA0B4E0BFB06FC25EA06470EFBBF
:1038E00006F607FB0EFE0BFB07F71EEB064E4CEB36
:1038F000164C4FF000061EEB074E4CEB174B18EB27
:103900000B0840F1000018EB0E0B58EB000840F1DB
:1039100000008F1A4FF000013CBFC943661B14BF63
:10392000B5EB040C00213CBFC943F61B4FEA17441A
:103930004EEA8E0E27EA04454FEA1C4704FB076255
:103940002CEA074C05FB07F70CFB05F604FB0CFC07
:1039500016EB074642EB174216EB0C4642EB1C42B5
:103960001BEB060658EB0202414146EA9E0601D5D2
:10397000BDE80189B619524141EB0101A3F10103F0
:10398000BDE801894FEA14454FEA114724EA05468C
:1039900021EA074C05FB07F406FB07F70CFB06F1D1
:1039A00005FB0CFC11EB074144EB17444FEA1247AF
:1039B00011EB0C4144EB1C4422EA074C05FB07F2D7
:1039C00006FB07F70CFB06F605FB0CFC16EB07469F
:1039D00042EB174216EB0C4642EB1C456A1854F1B9
:1039E000000148BF7047B619524141EB0101A3F1F4
:1039F0000103704795F0000F37D04FEA11424FEAAC
:103A0000144721EA024624EA074C02FB07F106FBB1
:103A100007F70CFB06F402FB0CFC14EB074441EB2C
:103A200017414FEA154714EB0C4441EB1C4125EAC2
:103A3000074C02FB07F506FB07F70CFB06F602FB3B
:103A40000CFC16EB074645EB174516EB0C4645EB11
:103A50001C42121951F1000148BF7047B61952417A
:103A600041EB0101A3F1010370474FEA14454FEA0E
:103A7000114724EA054621EA074C05FB07F106FB3E
:103A800007F70CFB06F24FF0000605FB0CFC12EBEF
:103A9000074241EB174112EB0C4251EB1C4148BF6E
:103AA0007047921841EB0101A3F101037047000038
:103AB00070B5044600688168C943C90717D1816899
:103AC00021F00101816001F023FE05460AE000BFFC
:103AD00001F01EFE401B022804D920688068C04304
:103AE000C00706D020688068C043C007F0D000201F
:103AF00070BDA06A40F01000A062E06A40F00100D2
:103B0000E062012070BD10B50146406A826A12F081
:103B1000500F05D0006A026BBDE810400846104700
:103B2000816A41F40071816201688968C1F3424190
:103B300007290CD1017B51B9816A21F4807181621E
:103B4000816AC90403D4816A41F00101816200F0F5
:103B5000BDFF10BD10B5406A816A41F0400181622D
:103B6000C16A41F00401C16200F0B2FF10BD10B59E
:103B7000406A00F0ACFF10BDF8B500260446009680
:103B800000688168C943C9072DD0816841F00101EF
:103B90008160164816490068B0FBF1F000E0401E55
:103BA00000900028FBD101F0B3FD054616E000BFF0
:103BB00001F0AEFD401B022810D920688068C04388
:103BC000C0070BD0A06A40F01000A062E06A40F08D
:103BD0000100E06284F824600120F8BD206880685C
:103BE000C043C007E4D10020F8BD00002C02002033
:103BF00040420F00FEE70000034901220A800088CE
:103C000040BA488270470000A40200200649012201
:103C10000A80008842BA0548CA810B210068806981
:103C2000D0F8A43218470000A40200201802002097
:103C3000094810B590F8361001290CD190F83710CA
:103C4000002908D1054C2169491C216181686069FE
:103C500008F01EFC606110BDBC02002000000020C6
:103C600010B5FFF7E5FF05484178491E11F0FF0147
:103C7000417001D10121017010BD0000040000203D
:103C80002DE9F04104F0A2FA1A4C012594F83C0009
:103C900018B3012826D1184FC1020122384601F07D
:103CA00032FD16480078A8B1154E01220221304697
:103CB00001F029FD01221103384601F024FD012203
:103CC0001146304601F01FFD04F024FA00F020F800
:103CD00000F06EF884F8335004E003F043FE022055
:103CE00084F8330094F83B00012801D184F8355062
:103CF000BDE8F081BC02002000100140040000205B
:103D000000140140FFF7BCFF642005F071F9F9E7EA
:103D1000F8B51C4C0025009594F83D0038B10128F9
:103D200028D00126022807D0032818D124E0606992
:103D300000F0EEFD022010E013486A460221006800
:103D40008069D0F86C329847009801280BD084F82D
:103D50003850E06900F0DCFD042084F8350060682C
:103D600003F048FDF8BD84F838600849E06908F0C0
:103D700073FDEFE70820F0E784F8376010206560F6
:103D8000EBE70000BC020020180200200000A03F6A
:103D90000088024940BA48817047000000000020B6
:103DA0000088024940BA08817047000000000020E6
:103DB0002DE9F041274C01270026A068264DB0F1DF
:103DC0007C5F07DA2878801CC0B228700A2802D9E4
:103DD00084F83A702E7060684FF07F5810F0FF4FF3
:103DE00007D04FF480511D4801F088FC012826D0EF
:103DF000AE704FF07E51206808F02CFE616808F02C
:103E0000F7FD0FD34146206A08F042FB616808F0D5
:103E1000EFFC07D34146206A08F03AFB216808F01E
:103E2000E7FC15D203F070FB6878401CC0B26870E4
:103E3000032802D36E7084F83B70BDE8F081A87847
:103E4000401CC0B2A8700A28D3D984F83B70D0E7D0
:103E50006E70F2E7BC020020000000200014014058
:103E60004069D0F80011012902D100780D2801D055
:103E7000002070470120704704490878002804D0CA
:103E800000200870891F48810881704706000020C3
:103E9000074910B501220A80008840BA088108F05D
:103EA00093FC044908F062FB01491831086210BD17
:103EB000A402002000002041074910B501220A8019
:103EC000008840BAC88008F07FFC044908F04EFB27
:103ED00001491831C86110BDA40200200000204132
:103EE000074910B501220A80008840BA888108F08D
:103EF0006BFC044908F03AFB01491831886210BD97
:103F0000A402002000002041074910B501220A80C8
:103F1000008840BA488108F057FC044908F026FBA5
:103F200001491831486210BDA40200200000204160
:103F3000014801F089B800001C0F0020014801F081
:103F400083B8000060100020014801F07DB8000037
:103F50001C100020014801F077B80000E810002094
:103F6000014801F071B80000A410002030B590F8AD
:103F700040500124AC40C56B6C60046863604368CA
:103F8000102B036803D099600068C26030BD9A604E
:103F90000068C16030BD000030B5114999B0888813
:103FA00044BA8879C91D4006050E2A466846FEF7C0
:103FB00087F80C4900200A78091D0DE051F83030CF
:103FC000A34207D101EBC0002946426868469047EA
:103FD00019B030BD401CC0B29042EFD3F8E70000EA
:103FE000C0030020C00000200348C078832801D10E
:103FF000FFF7D2BF70470000C0030020F0B4124E9C
:104000000146002206F581705A2301241354A52588
:104010002554022707253D5403274FF0820C07F84B
:1040200000C004273A54052284271754062213544B
:1040300008222C540B0A1354092211540A21A6F801
:104040000212F0BC00F01CB8C003002010B50B4CED
:1040500020785A2810D16078A5280DD1B4F8000135
:10406000002809D0FFF7C0FFB4F800112046FEF782
:104070009EF80020A4F8000110BD0000C00300203D
:104080000A4601464FF48053014802F0DDBC0000AF
:10409000D80F0020F0B4164B0446002503F58170BC
:1040A0005A262E540125A5262E540226D51C3554F9
:1040B000032582262E540425260A2E5405252C5429
:1040C0000624A3F8024200240AE0B3F802620D5D60
:1040D0003554B3F802526D1C641CA3F80252E4B2CA
:1040E0009442F2D393F80212F0BCFFF7C9BF00006C
:1040F000C00300202DE9FC5F0025DFF88091DFF888
:1041000080814FF0010B2E4640F6FF7A002408EB29
:10411000C60700BF00F0DAFB009057F824004946BC
:1041200008F098FC009908F063FB19D857F82400B0
:10413000494608F0ADF9009908F05AFC10D85148EA
:1041400000EBC60040F82450641CA4B2009808F0AC
:1041500073F90B4602464CA15648009506F006FA44
:1041600000222B461146544800F078FE4FF496701A
:1041700001F004F96D1CADB2554502D3641CA4B224
:104180000025022CC6D3761CB6B20C2EBED300235B
:104190001A461946484800F061FE3A4E00250024B0
:1041A00006EBC507234657F8240000902A4643A192
:1041B000404806F0DBF957F8240008B94FF0000B2F
:1041C000641CA4B2022CEDD343A13A4806F0CEF908
:1041D0006D1CADB20C2DE2D30024C2464FEA060995
:1041E0005AF834800AEBC4004146406808F032FCBB
:1041F00009EBC40559F8347069680646C81B08F015
:10420000E3FA314608F0B2F90646414608F024FBCD
:104210008046384608F0D8FA414608F01BFCC5E94C
:104220001860641CA4B20C2CDAD300254E4600247E
:1042300006EBC50707EB8400006E08F0FDF8CDE93A
:10424000000123462A4625A11A4806F08FF9641C6E
:10425000A4B2022CEED320A1164806F087F96D1CFB
:10426000ADB20C2DE3D3002086F8C000C42205496E
:10427000214800F06BF95846BDE8FC9FCDCC4C3D81
:104280007CCC0208FC02002053616D706C696E6783
:104290005F566F6C74616765203D2025662C204F4A
:1042A00075747075745F56616C7565203D2025646A
:1042B0002E0D0A0094110020600F00204441435F3E
:1042C00056414C55455B25645D5B25645D203D2072
:1042D00025642E09000000000D0A00004461632ED1
:1042E000506172615F417272795B25645D5B256428
:1042F0005D203D202566090000F803087047000096
:1043000070B58AB020216846FDF773FF684603F058
:1043100049F8044603F0BCF8012004F069FE224687
:10432000694641F20E00FFF7B5FE012004F060FE81
:1043300002221E4941F20B00FFF7ACFE012004F0FF
:1043400057FE1A490222891C41F20C00FFF7A2FE17
:10435000012004F04DFE154C0025323CADF82050F4
:1043600094F83D004FF4807602280ED194F838007E
:10437000012801D1ADF82060022208A941F21040C5
:10438000FFF788FE012004F033FEADF8205094F8CA
:104390003600012801D1ADF82060022208A94FF4AF
:1043A000A050FFF777FE0AB070BD0000EE020020BB
:1043B000054D4FF0FF342146A86A04F079FE00282D
:1043C000F9D1FFF743FEF6E77C010020F0B5540871
:1043D00000230A44521ED5B209E0CE18EF1A825DBE
:1043E00010F807C000F806C05B1CC255DBB2A34240
:1043F000F3D3F0BD72B6FEE710B501F06FF80349D4
:104400003420C860BDE8104001F01EB80020024012
:1044100006490020C8610648016941F004010161B4
:10442000016941F04001016170470000081400205B
:1044300000200240064A0021D16106490A6942F083
:1044400002020A614861086940F040000861704753
:104450000814002000200240044B0022DA61044AC4
:10446000136943F0010313610180704708140020B1
:1044700000200240A0F10063B3F5002F03D812B171
:1044800009B10A4406E00020704700BF50F8013B24
:1044900001F8013B8A42F9D80120704714480022F4
:1044A000C168CB06134904D5CA6942F00202CA6149
:1044B0001022C3685B0705D5CB6943F00103CB61CC
:1044C00042F00402C369DB0707D0CB6943F0040361
:1044D000CB61C16921F00101C161A2F5807101398F
:1044E00001D0C2607047C16921F00101C16170470C
:1044F000002002400814002070B5054601F008F9BC
:104500000646114C09E0681C07D025B101F000F9FE
:10451000801BA84201D9032070BDE068C007F2D11A
:10452000E068800601D52020E060E068C00605D480
:10453000E069C00702D1E068400703D5FFF7AEFF8E
:10454000012070BD002070BD002002402DE9F04127
:1045500086B005460024A0F1006017468846009406
:10456000B0F5002F13D897B1B8F1000F0FD072B685
:1045700000F0B4FF01200194CDE90350124934202A
:10458000C860694601A800F00BFF002414E0002079
:1045900006B0BDE8F08100BF38F8142005EB4401F7
:1045A00016460023012000F059FF35F81400B042F0
:1045B00001D00120ECE7641CB4EB570FECD300F002
:1045C00043FF62B60098E3E7002002402DE9FC417A
:1045D0004FF08045182252495248FFF74BFF504C8C
:1045E00051A15948E389228805F0C0FF21880020A5
:1045F000012919D04FF4C071A180022161804FF4CC
:104600000D7121810521E1804FF404716181032145
:10461000A1810F2121824901E1814FF4FA71618268
:10462000A0824FF4FF71E1822080C42247494848AC
:10463000FFF720FF024647A1434805F097FF434894
:10464000002490F8C00080B3474E0122D1023046CA
:1046500001F059F8454F01220221384601F053F884
:1046600001221103304601F04EF80122114638466E
:1046700001F049F81AE0641C032C17D9284C41F2C8
:104680000C06183404F134054FF47A7794F83500A9
:10469000022280F0010084F8350029463046FFF7F9
:1046A000F9FC384600F06AFEF0E714E0FFF722FD5F
:1046B0000028E0D02E4C2F4E41F28837284603F0D8
:1046C00099F83146284607F0E3FE0546384600F0E3
:1046D00055FEA542F2DB1D49602260312648FDF7F8
:1046E00034FD254F0025002407EBC50656F82400AD
:1046F00007F0A2FECDE9000123462A461FA1124879
:1047000005F034FF641CA4B2022CEFD324A10E48A0
:1047100005F02CFF6D1CADB20C2DE4D3BDE8FC817F
:10472000A402002000F00308666C61672069732012
:1047300020307825582C206D696E7574657320695A
:1047400073202564200D0A0094110020FC02002033
:1047500000F803086572726F722069732030782543
:1047600058200D0A00000000001001400014014014
:10477000000064420000A040600000204441435F0C
:10478000506172616D5F496E74657276616C5B2514
:10479000645D5B25645D203D202566090000000006
:1047A0000D0A000010B5064C2088012806D11822F9
:1047B00021460448FFF7CAFE0020208010BD0000FB
:1047C000A402002000F00308074A002102EB800049
:1047D00000F1800203E000BF50F8083B194490420A
:1047E000FAD3C808704700006C0E002010B50246CE
:1047F00005230949002000BF31F82040944204D22B
:1048000001EB80046488944204D8401C80B2984232
:10481000F2D3002010BD000068CC02082DE9F04161
:1048200006260C4D07460024384655F8341008F08B
:10483000DFF809D205EBC4004168384607F0D8FF1D
:1048400002D22046BDE8F081641CA4B2B442EBD38E
:104850000020F7E7DCCC020870B5044610460023C0
:104860004AF2010510E000BF14F8012B504000226D
:10487000C60702D085EA500000E04008521C92B200
:10488000082AF5D35B1C9BB28B42EDD370BD0000B0
:104890002DE9F0410C260C4D07460024384655F80A
:1048A000341008F0A5F809D205EBC4004168384679
:1048B00007F09EFF02D22046BDE8F081641CA4B23E
:1048C000B442EBD30020F7E77CCC020870B501209E
:1048D000FFF77AFF040016D0A0B2FFF787FF0B4E58
:1048E00056F83050A0B2FFF781FF06EBC0004668D3
:1048F000204607F069FF294607F0AEFF3146BDE8C4
:10490000704007F0C5BD002070BD000040CC02081B
:104910007FB5164D0646A96808F09CF8039020F074
:104920000040009000241249304607F01FFE014667
:104930003016012646EAE010401C16D0009810F010
:10494000FF4F0DD0009808F053F809D29DF90F00E1
:1049500046EAE01007F020FF064907F07DFF044615
:104960002146686807F094FD68607FBDBC020020A6
:104970000000F041CDCCCC3D10B54178C278012982
:1049800021D002291FD002F5FA624B1C03EB43032E
:104990000524B3FBF4F38478134404EB4101194478
:1049A0006423B2FBF3F301EB9201C91A4FF4C8730D
:1049B000B2FBF3F21144072291FBF2F302FB131155
:1049C000491C017010BD0C31C9B202F2CF72DCE794
:1049D000F8B50024009490F824202546012A12D02E
:1049E000012280F824204A681F23072A0DD2066876
:1049F000776B521E02EB820293409F430B689340F9
:104A00001F43776319E00220F8BD06680D2A0AD219
:104A1000376BD21F02EB820293409F430B68934097
:104A20001F43376309E0F76A0D3A02EB82029340B5
:104A30009F430B6893401F43F7620A680723066889
:104A40000A2A0AD3F7680A3A02EB420293409F43CC
:104A50008B6893401F43F76008E0376902EB42021E
:104A600093409F438B6893401F4337610A68102A25
:104A700001D0112A20D1124B02689A4217D19368B3
:104A80001B0219D4936843F400039360096810294A
:104A900012D10C490C4A0968B1FBF2F101EB81011A
:104AA000490000E0491E00910029FBD104E0816A21
:104AB00041F020018162012480F824502046F8BD95
:104AC000002401402C02002040420F007047704734
:104AD000704700002DE9F04104004FF000057FD041
:104AE000A06A002628B9E66284F82460204600F017
:104AF00081F82046FEF7DCFFA16AC90600D420B188
:104B0000A06A40F01000A0626AE0A16A21F4885116
:104B100041F00201A162334923688B42E16904D16B
:104B2000B1F5402F01D14FF40021277B4FF4807C59
:104B300041EA470261680A43A168614508D001293A
:104B400006D0002194F814E0BEF1010F02D00AE073
:104B50006146F7E7C7B1A76A47F02007A762E76A8F
:104B600047F00107E7625F6827F469470F435F601A
:104B7000236899681C4F394011439960A1686145C9
:104B80000BD0012909D00CE0DFF860E0A7690EEB3B
:104B900047370F4347F40061E5E7218A0D05A5F586
:104BA00080152168CB6A23F470032B43CB62216804
:104BB00089680F4B1940914208D1E662A16A21F041
:104BC000020141F00101A162BDE8F081A06A20F07C
:104BD000020040F01000A062E06A40F00100E062D4
:104BE0000120F1E7003C0140FDF7E1FF00E0FFFF9D
:104BF000FE0E1FFF70B586B0002605460096019692
:104C00000296039600681B49884230D11A49886988
:104C100040F400708861886900F40070049088692D
:104C200040F0040088618869694600F0040004903F
:104C3000C020009003200190104800F063FC114C4C
:104C40000F48C4E900068020C4E9026080002061AA
:104C5000800060612020A0614FF44050E061204658
:104C600000F016FB08B1FFF7C5FB2C62656206B0C9
:104C700070BD000000240140001002400008014007
:104C8000080002401C0F00202DE9F0478946044629
:104C90003B4900683B4F0E1D9046884201D0B84208
:104CA00007D1306810F4702F03D001252846BDE8E5
:104CB000F08794F8240001280CD0012084F8240007
:104CC0002046FEF759FF05004FF0000004D084F89D
:104CD0002400EBE70220EAE7A16A40F60162914373
:104CE00041F48071A1622168B94218D1326812F48E
:104CF000702F14D0A16A41F48011A1623168490576
:104D000005D5A16A21F4005141F48051A162A16A44
:104D1000C9040AD5E16A21F00601E16206E0A26A4F
:104D200022F48012A2624968E9E7E06284F8240074
:104D3000216A15488862216A1448C862216A1448A9
:104D4000086321686FF0020008602068816841F400
:104D500080718160216843464A464C31206A00F0E8
:104D6000D5FA20688168C1F342410729816803D0E0
:104D700041F48011816099E741F4A001FAE7000055
:104D80000024014000280140073B02086F3B020855
:104D9000553B020870B54379012B1CD001264671A2
:104DA0000223037105682B6802F0100440F6FE72BE
:104DB000A2409343D1E900210A43A2401A432A604A
:104DC00001680A68C023A3409A430A600671002163
:104DD0004171084670BD022070BD70B5040003D05B
:104DE0002079002510B105E0012070BD65712046D5
:104DF00000F008F8022020712561012020710020B8
:104E000070BD000000B585B00021009101910291B4
:104E1000039100680E49884218D10E48C16941F0DB
:104E20000051C161C16901F000510491816941F0F3
:104E3000040181618069694600F00400049010203B
:104E4000009003200190044800F05CFB05B000BD19
:104E500000740040001002400008014018B50468CA
:104E600000940068104421B11430009003600020C9
:104E700018BD0830F9E770B54279012A1ED0012229
:104E80004271022303710468266801F0100302FADC
:104E900003F52E4326600029016811D00C6804F444
:104EA00070153C249C40A54203D14B6843F002039B
:104EB0004B60027100214171084670BD022070BD37
:104EC0000B68C3F383030F2BF3D14B6843F001034B
:104ED000EEE710B590F821100022022905D0042138
:104EE000816380F82020012010BD01680B6823F049
:104EF0000E030B6001680B6823F001030B6090F850
:104F00004030C46B012101FA03F3636080F8211083
:104F100080F82020104610BD2DE9F05F90F8211098
:104F20000024022903D004218163012485E0016863
:104F30000A6822F00E020A6001680A6822F0010283
:104F40000A603F4E3E4FB215DFF8F4C0DFF8F09034
:104F5000DFF8ECA0DFF8E8B0DFF8E4E00168783FC4
:104F600013011502ACF1640CA9F15009AAF13C0A35
:104F7000ABF1280BAEF1140E4FF48018B14227D9D3
:104F8000B9420ED0614512D049451DD0514518D0C7
:104F9000594518D0714501D1424615E0294EB1421C
:104FA00001D1012210E0274E1436B14201D1102266
:104FB0000AE0244E2836B14206D0224A3C329142C1
:104FC00001D11A4600E02A461E49091F0A602BE05B
:104FD000B94213D0614517D0494522D051451DD063
:104FE00059451DD0714501D142461AE0B14202D166
:104FF0004FF0807215E0134EB14201D1012210E052
:10500000104E1436B14201D110220AE00D4E28365E
:10501000B14206D00B4A3C32914201D11A4600E01F
:105020002A46074980394A60012180F82110002171
:1050300080F82010416B01B188472046BDE8F09F01
:1050400080000240080402402DE9F05FC16B0A684D
:1050500001680B68046C4FF0040808FA04F8844DEA
:10506000844E854FDFF814C2DFF81492DFF814A2E3
:10507000DFF814B2DFF814E218EA020F65D05FEA35
:10508000437862D50A68920603D40A6822F00402C3
:105090000A60DFF8F0814FF48062016808F11408BB
:1050A00013011402414524D9A9420DD0B1420FD0B9
:1050B000B9421AD0614515D0494515D0514501D1A5
:1050C000120312E0594501D104220EE0714501D1CD
:1050D00040220AE06D4D1435A94206D06B4A2832B1
:1050E000914201D11A4600E022466749091F0A6031
:1050F00029E0A94213D0B14215D0B94220D0614570
:105100001BD049451BD0514502D14FF4800217E016
:10511000414502D14FF0806212E0594501D104228D
:105120000EE0714501D140220AE0584D1435A942E4
:1051300006D0564A2832914201D11A4600E0224652
:105140004B4908394A60C16A71E04FF0020808FA19
:1051500004F818EA020F70D05FEA83786DD50A6808
:10516000920606D40A6822F00A020A60012180F839
:105170002110DFF810814FF40072016808F1140863
:1051800013011402414524D9A9420DD0B1420FD0D8
:10519000B9421AD0614515D0494515D0514501D1C4
:1051A000120312E0594501D102220EE0714501D1EE
:1051B00020220AE0354D1435A94206D0334A283260
:1051C000914201D11A4600E022462F49091F0A6088
:1051D00029E0A94213D0B14215D0B94220D061458F
:1051E0001BD049451BD0514502D14FF4001217E0A6
:1051F000414502D14FF0007212E0594501D102221F
:105200000EE0714501D120220AE0204D1435A9425B
:1052100006D01E4A2832914201D11A4600E02246A9
:10522000134908394A60002180F82010816A00295A
:105230001CD0BDE8F05F0847FFE70825A5401542F0
:1052400014D01A0712D50A6822F00E020A6090F8EC
:105250004020C36B012101FA02F25A60816380F899
:105260002110002180F82010016BE0E7BDE8F09FDD
:10527000080002401C00024030000240440002408E
:10528000580002406C000240080402401C04024026
:1052900030B560B11A4B026814219A4209D2194BF9
:1052A0001344B3FBF1F18900016417490AE00120BE
:1052B00030BD134B5B421344B3FBF1F18900016431
:1052C0000F490839C163022180F82110136843F6A1
:1052D000F0718B43F0E901142143D0E902452C43DE
:1052E00021430469214344692143846921431943CB
:1052F000116000214163012242770177084630BDE9
:1053000008040240F8FFFDBF0000024070B50446EB
:1053100090F82000002501280CD0012084F82000FE
:1053200094F821600020012E06D084F82000022588
:10533000284670BD022070BD022684F82160A0635B
:105340002068066826F0010606602046FEF70EFE7D
:10535000E06A00282068016802D041F00E0106E0F2
:1053600021F0040101602068016841F00A01016038
:105370002068016841F001010160D9E770B5044679
:1053800000F0C6F90546601C02D0044800780444C9
:1053900000F0BEF9401BA042FAD370BD20020020ED
:1053A0002DE9F047054626480F460126017E0129D2
:1053B0000FD00121814601762868DFF888804CF201
:1053C0005034022808D0A2462046FFF795F8A8B12D
:1053D00031E00220BDE8F0872046FFF78DF808BBDA
:1053E0000120FFF715F82046FFF786F8D8F81010CF
:1053F000064621F00401C8F810101CE04FF0FF3001
:105400003860AC6811E02046FFF714F85046FFF70B
:1054100073F8D8F81010060021F00201C8F8101037
:1054200001D03C6007E004F50064D5E9020100EB1F
:10543000C120A042E7D8002189F818103046C9E7FA
:1054400008140020002002400348016941F0800157
:105450000161002070470000002002402DE9F05F4C
:1054600007461C4888460024017E15461E46012931
:1054700009D00121814601764CF2503A5046FFF79F
:105480003BF818B122E00220BDE8F09F012F02D0C6
:10549000022F00D00427D346DFF83CA02201284683
:1054A0003146FCF775FD81B208EB4400FEF7D4FFEE
:1054B0005846FFF721F8DAF8102022F00102CAF866
:1054C000102018B9641CE4B2BC42E7D3002289F86A
:1054D0001820D9E7081400200020024006490020C7
:1054E0000A69120607D5054A4A60054A4A600969F1
:1054F000090600D5012070470020024023016745BE
:10550000AB89EFCD2DE9F84FDFF8C891002409F100
:10551000040A0AF1040B23460F270BF1040ED1E015
:105520000125A54006EA0502AA4276D1DFF8A8C106
:105530004E68A6EB0C0866452BD00DDC032E34D04C
:1055400005DC36B3012E19D0022E2FD11BE0112E0F
:1055500016D0122E2AD119E0B8F5881F19D006DC12
:10556000B8F5803F15D0B8F5801F1FD111E0B8F510
:10557000001F0ED0B8F5041F18D10AE0CB6815E063
:10558000CB681B1D12E0CB6808330FE0CB680C33EF
:105590000CE08B682BB1012B4FF0080303D0456161
:1055A00004E0042302E0056100E00023FF2A01D8A3
:1055B000064601E000F104064FEA840501D9A5F191
:1055C0002005D6F8008007FA05FC28EA0C0803FA43
:1055D00005F548EA0508C6F800804D68ED0070D56D
:1055E0003E4DAE6946F00106AE61AD6924F003069A
:1055F00005F0010500953A4D06EB050CDCF8085066
:10560000A607360F07FA06F825EA0805DFF8D48062
:10561000404503D14FF0000825E052E0DFF8C88094
:10562000404502D14FF001081DE0DFF8C080404541
:1056300002D14FF0020816E0DFF8B480404502D1F5
:105640004FF003080FE0DFF8AC80404502D14FF087
:10565000040808E0DFF8A080404502D14FF00508BB
:1056600001E04FF0060808FA06F848EA0508CCF809
:1056700008804D68D9F80060ED034D4601D516430A
:1056800000E096432E604D68DAF80060AD035546A1
:1056900001D5164300E096432E604D68DBF80060AC
:1056A000ED025D4601D5164300E096432E604D683D
:1056B000DEF80060AD02754601D5164300E0964362
:1056C0002E60641C0A681646E2407FF429AFBDE8EC
:1056D000F88F00000004014000001110001002408B
:1056E0000000014000080140000C01400010014092
:1056F0000014014000180140001C0140806808406F
:1057000000D0012070470AB1016170470904FBE72E
:1057100001488068704700002002002070B5040036
:1057200011D021684CF6CC400860216845F25550F4
:105730000860D4E9000141602168A0688860FFF733
:10574000E7FF05460DE0012070BD00BFFFF7E0FF59
:10575000401B272805D92068C068800701D0032096
:1057600070BD2068C0688007F0D121684AF6AA2081
:105770000860002070BD00684AF6AA210160002080
:1057800070470000024881680278114481607047C8
:1057900020020020074810B5016841F010010160A7
:1057A000032000F095F80F2000F006F800F03EF816
:1057B000002010BD0020024000B5014687B0002245
:1057C000192000F065F8192000F054F81348816999
:1057D00041F400618161806905A900F400600690D0
:1057E000684600F003FA00F031FA0D490D4AB0FBAB
:1057F000F1F10D48491E0260416040F2E73200219C
:10580000C0E90321816000F048FD10B1012007B01C
:1058100000BD054800F070FDF9E7000000100240EF
:1058200040420F00002C01402C1100200F4808B509
:10583000816941F001018161816901F001010091FB
:10584000C16941F08051C161C069002200F08050FF
:1058500000900F21901E00F01BF80548416821F0D0
:10586000E06141F00071416008BD0000001002409D
:1058700000000140002809DB00F01F0201219140D7
:105880004009800000F1E020C0F8001170470000DE
:10589000F0B40E4B1B680C46C3F30223C3F107059B
:1058A000042D00D90425191D072901D2002300E089
:1058B000DB1E012606FA05F1491E214099409E4053
:1058C000761E16403143F0BC02F00CBC0CED00E03B
:1058D000064900F0070208684FF6FF03184040EA47
:1058E0000220034A10430860704700000CED00E0FE
:1058F0000000FA05014901200862704700000E42CD
:1059000010B52CA401461DCC86B08DE81D002DA03D
:105910002D4C00680490002004292FD00BDC0129B5
:105920002FD0022928D100F091F96168C1F38131AB
:10593000491C49001EE0082920D010291CD16168AB
:105940002268D20118D5C1F38342C9031DF80200B1
:1059500009D5616804AAC1F34041515C1B4AB2FBFE
:10596000F1F1484301E01A4948436168490203D410
:1059700040000321B0FBF1F006B010BD00F076F955
:10598000FAE7226AC2F30121012903D1920701D566
:10599000C803F1E7022905D1626A920702D549F6E8
:1059A0004040E9E70329E7D121688903E4D54FF2B4
:1059B0002440E1E702030405060708090A0B0C0D61
:1059C0000E0F1010010200000010024000127A00B9
:1059D00000093D002DE9F84305460078354CC00725
:1059E00054D0E0690026C00008D4E06940F080503F
:1059F000E061E069012600F0805000902E480168C7
:105A0000C90512D40168804641F480710160FFF736
:105A10007FFE074605E000BFFFF77AFEC01B642843
:105A200023D8D8F80000C005F6D5206A10F44070DD
:105A300021D0A98801F4407181421CD0206A1F49FD
:105A4000012220F440700A6000220A602062C00730
:105A500011D0FFF75DFE074641F2883808E000BF2D
:105A6000FFF756FEC11B414502D90320BDE8F8836C
:105A7000206A8007F4D5206A696820F440700843E2
:105A800020621EB1E06920F08050E0612878800734
:105A900005D56068A96820F4404008436060287814
:105AA000C00605D56068696920F48000084360601D
:105AB0000020DBE70010024000700040400442423A
:105AC0002DE9F0470F46050061D0434E306800F0E5
:105AD0000700B84209D2306820F007003843306030
:105AE000306800F00700B84251D128683B4C81076C
:105AF00012D5400703D5606840F4E0606060287804
:105B0000000703D5606840F4605060606068A96871
:105B100020F0F000084360602878C00728D068684B
:105B2000012810D02168022810D0890700292EDA18
:105B3000616821F0030101436160FFF7E9FD8046E0
:105B400041F288390DE021688903EFE78901EDE72B
:105B5000FFF7DEFDA0EB0801494502D90320BDE8AF
:105B6000F0876068696800F00C00B0EB810FEFD13E
:105B7000306800F00700B8420BD9306820F0070009
:105B800038433060306800F00700B84201D001208F
:105B9000E5E72878400705D56068E96820F4E0600B
:105BA000084360602878000706D56068296920F4FA
:105BB000605040EAC100606000F058F86168084A2F
:105BC000C1F30311515CC8400649086006480068EB
:105BD000FFF7F2FD0020C2E7002002400010024063
:105BE000ECCE02082C020020240200200F220260CA
:105BF0000C4A536803F003034360536803F0F00357
:105C00008360536803F4E063C36052684FF4E06359
:105C100003EAD20202610448006800F0070008604D
:105C2000704700000010024000200240044805496F
:105C300000684968044AC1F30221515CC8407047BA
:105C40002C02002000100240FCCE02080448054946
:105C500000684968044AC1F3C221515CC8407047DA
:105C60002C02002000100240FCCE020812A185B0D8
:105C70000FC98DE80F0014A0144A00680490516801
:105C8000134801F00C03042B10D0082B0ED1C1F3E4
:105C90008343C9031DF803000AD5516804AAC1F360
:105CA0004041515C0A4A5043B0FBF1F005B07047E7
:105CB00008494843FAE700000203040506070809FB
:105CC0000A0B0C0D0E0F1010010200000010024014
:105CD00000127A0000093D002DE9F84F040070D051
:105CE0002078C04DC00749D06868C0F38100012802
:105CF00007D06868C0F38100022809D16868C00332
:105D000006D52868800339D560680028E7D035E0DB
:105D10006068B0F5803F0BD010B1B0F5A02F11D066
:105D2000286820F480302860286820F4802002E071
:105D3000286840F480302860606890B1FFF7E8FC84
:105D400006460AE0286840F480202860F0E700BF9B
:105D5000FFF7DEFC801B642873D828688003F7D522
:105D60000CE0FFF7D5FC064605E000BFFFF7D0FCCE
:105D7000801B6428F0D828688003F7D420789A4ED6
:105D800080074FF001094FF0000839D5686810F01E
:105D90000C0F07D06868C0F38100022809D1686839
:105DA000C00306D42868800714D52069012808D1CB
:105DB00010E02069B0B1C6F80090FFF7A9FC0746D3
:105DC00005E00AE1FFF7A4FCC01B0228C4D828683C
:105DD0008007F7D52868616920F0F80040EAC10023
:105DE00028600DE0C6F80080FFF792FC074604E04B
:105DF000FFF78EFCC01B022823D828688007F7D441
:105E0000207800072CD57948A169D9B1C0F8009055
:105E1000FFF77EFC074604E0FFF77AFCC01B022870
:105E20000FD8686A8007F7D571484FF4FA510068B7
:105E3000B0FBF1F0009000BF0098411E0091FAD233
:105E40000EE080E0C0F80080FFF762FC074604E047
:105E5000FFF75EFCC01B022875D8686A8007F7D47C
:105E60002078400760D5E8690027C00008D4E869B9
:105E700040F08050E861E869012700F08050009010
:105E80005C480168C90513D40168834641F48071F8
:105E90000160FFF73DFC824606E000BFFFF738FCDB
:105EA000A0EB0A0064284ED8DBF80000C005F5D549
:105EB000E06801280AD008B1052813D0286A20F02C
:105EC00001002862286A20F0040002E0286A40F0FD
:105ED00001002862E06841F2883B98B1FFF718FCA6
:105EE00082460BE0286A40F004002862EEE700BF1B
:105EF000FFF70EFCA0EB0A0159455AD8286A800723
:105F0000F6D50CE0FFF704FC824605E0FFF700FC45
:105F1000A0EB0A0159454CD8286A8007F6D41FB176
:105F2000E86920F08050E861E06988B36968C1F3EE
:105F30008101022944D00228C6F8608004D0FFF70E
:105F4000E7FB044638E034E0FFF7E2FB074604E0F5
:105F5000FFF7DEFBC01B02282BD828688001F7D48E
:105F6000206AB0F5803F05D16868A16820F4003050
:105F700008436860D4E908010843696821F4741192
:105F800008436860C6F86090FFF7C2FB044606E06D
:105F900025E000BFFFF7BCFB001B022809D82868DA
:105FA0008001F7D51BE000BFFFF7B2FB001B022802
:105FB00002D90320BDE8F88F28688001F4D40EE0F0
:105FC0000128F7D06868226A00F48031914204D138
:105FD000616A00F47010884201D00120EAE70020D5
:105FE000E8E7000000100240000042428004424204
:105FF0002C02002000700040024850F8210080B2BE
:1060000070470000006C0040024800EB810091B234
:1060100001607047006C004070B5040003D0607CE4
:10602000002610B105E0012070BD2674204600F066
:1060300043F802206074204600F010F9042578BB74
:10604000204601F0F0F858BB2068416821F00701B4
:106050004160A06820B11748016821F0010101608A
:106060001448001F0168A26821F4607111430160A7
:106070006068411C04D10120FFF742FC80B1401E42
:1060800021688A6822F00F0242EA10428A60216881
:10609000CA6860F30F02CA60204601F0DFF808B159
:1060A0006574C0E7E67301206073A073607400201C
:1060B00070BD0000306C004008B500680849884297
:1060C0000DD1FFF717FC0748C16941F00061C161BC
:1060D000C069054900F0006000900120086008BD1B
:1060E00000280040001002403C0442422DE9F041EB
:1060F0000D4604003BD0C5B3207C01283AD04FF0B8
:10610000010884F8108002206074E87872B301F00E
:1061100081F8E073687801F07DF86073A87801F089
:1061200079F8A073C2B2617BE07B01F0C9F82073FB
:106130002870204601F0B4F84FF46161B0FBF1F132
:10614000002518292DD91822B1FBF2F1A1EB01117C
:1061500001EB4101C1EB011100EBC11631462046B4
:1061600001F0EDF80427C8B90BE000E004E00120DD
:10617000BDE8F0810220FBE7E07368786073A878DF
:10618000CFE7204601F085F8411C0AD0B04208D282
:1061900006490144204601F0BEF810B16774257429
:1061A000E5E784F8118025740020E1E780510100C3
:1061B0002DE9F0410D46040024D01DB3207C0128B8
:1061C00023D04FF0010884F81080022060742878F2
:1061D000EAB101F01FF84FF4616100FB01F6687845
:1061E00001F018F8C0EB001006EB8006A87801F06B
:1061F00011F835182946204601F0A1F80026042799
:1062000010BB0FE00120BDE8F0810220FBE74FF456
:10621000616148436978C1EB011100EB8100A97805
:106220004518E7E72068416821F0050141602046F4
:1062300001F02FF8411C0AD0A84208D206490144B7
:10624000204601F068F810B167742674DAE784F824
:10625000118026740020D6E78051010070B504003B
:106260000AD02068416821F008014160FFF750FA28
:1062700005464FF47A7608E0012070BDFFF748FA32
:10628000401BB04201D9032070BD20684068000760
:10629000F4D5002070BD7047704710B5040003D0DE
:1062A00094F83D0010B107E0012010BD002084F8F3
:1062B0003C00204600F01EF8022084F83D00211D1D
:1062C000206801F0F1FB012084F8460084F83E00CC
:1062D00084F83F0084F8400084F8410084F84200CC
:1062E00084F8430084F8440084F8450084F83D00B5
:1062F000002010BD7047000090F83D10012901D02A
:1063000001207047022180F83D100168CA6842F000
:106310000102CA6000680E4988420ED00D498842C9
:106320000BD0B0F1804F08D00B49884205D00B4903
:10633000884202D00A49884204D1816801F00701ED
:10634000062903D0016841F0010101600020704777
:10635000002C0140003401400004004000080040CF
:10636000000C0040704770B50446006801694FF0AA
:106370000005C943890715D4C168C943890711D4E9
:10638000E91E01610120207720688069800720468E
:1063900002D0FFF7E7FF04E000F098F8204600F095
:1063A00096F8257720680169C943490717D4C16861
:1063B000C943490713D46FF004010161022020771B
:1063C0002068806910F4407F204602D0FFF7CAFFA2
:1063D00004E000F07BF8204600F079F8257720688B
:1063E0000169C943090716D4C168C943090712D412
:1063F0006FF008010161042020772068C0698007E0
:10640000204602D0FFF7AEFF04E000F05FF8204620
:1064100000F05DF8257720680169C943C90617D4E3
:10642000C168C943C90613D46FF010010161082087
:1064300020772068C06910F4407F204602D0FFF723
:1064400091FF04E000F042F8204600F040F8257784
:1064500020680169C943C90708D1C168C943C90790
:1064600004D1891E0161204600F032F820680169DC
:10647000C943090609D4C168C943090605D46FF0A8
:10648000800101612046FFF706FF20680169C943CA
:10649000490609D4C168C943490605D46FF04001D3
:1064A0000161204600F01EF820680169C943890691
:1064B0000BD4C168C943890607D46FF0200101617C
:1064C0002046BDE87040FFF7E7BE70BD70477047DB
:1064D00000680349884201D1FFF754B970470000B2
:1064E000002C01407047704710B5044600684169B0
:1064F00094F83D20C1F3C011212A0BD151B141695B
:1065000021F080014161606B08B1FEF7E2FC20469A
:1065100001F0D3FB2068416994F83E20C1F380115B
:10652000222A0BD151B1416921F040014161A06B98
:1065300008B1FEF7CEFC204601F0A7FB002010BDFD
:1065400070470000F8B5026804461068D1685369C6
:1065500010F00F0F4FF0000553D003F0010601F4C7
:10656000907737435FD0C20705D0CA0503D5226CA8
:1065700042F001022264420705D5DA0703D0226CFB
:1065800042F002022264820705D5DA0703D0226CAA
:1065900042F004022264020707D501F020023243D0
:1065A00003D0226C42F008022264226C002A34D00C
:1065B000800604D5880602D5204601F087FB2068B6
:1065C0004069216CC0F38010090700D430B3204625
:1065D00001F05BFB2068416949061BD5416921F048
:1065E00040014161A06BA8B158494163A06BFEF71F
:1065F00093FC002811D0A06B416B01B0BDE8F040C6
:10660000084783060FD58B060DD52046BDE8F84018
:1066100001F05CBB2046FFF793FFF8BD2046FFF773
:106620008FFF2564F8BD266B2023012E52D1C606AC
:1066300050D5CE064ED5106850680090506940067F
:106640002AD5A16B086840680004000CEAD0A68D2A
:106650008642E7D9E0858869202818D0D06820F4E0
:106660008070D0602068416921F00101416120689B
:10667000416921F04001416184F83E302563206882
:10668000C16821F01001C160A06BFEF722FCA08D53
:10669000E18D401A81B219E0A08DE18D401A81B2DE
:1066A000E08D0028BED00029BCD0D06820F49070C6
:1066B000D0602068426922F00102426184F83E30D5
:1066C00025632068C26822F01002C2602046FFF7EE
:1066D0000AFFF8BD05062BD50D0629D594F83D0017
:1066E0002128F6D1A068B0F5805F01D12069B0B152
:1066F000206A411C2162216800784860E08C401EBD
:106700000004000CE084E4D12068C16821F080011D
:10671000C1602068C16841F04001C160F8BD206AD5
:106720000088C0F308005060206A801C2062E5E702
:106730004006F3D54806F1D5D168204621F0400146
:10674000D16084F83D3000F019FAF8BD857B02086D
:1067500070B5040004D094F83D00002510B106E0A7
:10676000012070BD84F83C50204600F023F824201E
:1067700084F83D002068C16821F40051C1602046C2
:1067800001F000FB2068016921F49041016120685B
:10679000416921F02A0141612068C16841F400513A
:1067A000C1602564202084F83D0084F83E0000206C
:1067B00070BD00002DE9F04186B0002500950195DF
:1067C0000295039504465C4F03685C48022103224E
:1067D00080264FF01008BB424ED1836943F48043BA
:1067E0008361836903F480430493836943F0040362
:1067F00083618069524F00F0040004900802CDE9E3
:106800000001039269463846FEF77CFEF000CDE9B0
:106810000005694638460295FEF774FE4A4F49481E
:10682000C7E90005C7E902563D6180147D61C7E9EB
:1068300006503846FEF72CFD08B1FDF7DBFDA763D7
:106840007C62414F3F4844371438C7E902563D61E6
:106850007D61BD61FD61C7E900083846FEF718FD9E
:1068600008B1FDF7C7FD67630022052125207C6282
:10687000FFF70EF825205AE0344FBB4259D1C369C7
:1068800043F40033C361C36903F4003304938369A1
:1068900043F02003836180692D4F00F020000490B5
:1068A0002020CDE90001039269463846FEF72AFE12
:1068B0004020CDE90005694638460295FEF722FEE4
:1068C0002448416841F0E06141F0080141601E4FF9
:1068D0001C4888372830C7E902563D617D61C7E909
:1068E00000084FF40058C7E906583846FEF7D0FCB8
:1068F00008B1FDF77FFD67637C62134F1148CC3709
:106900001430C7E90005C7E902563D617D61C7E95A
:1069100006583846FEF7BCFC08B1FDF76BFDA763CF
:106920000022052126207C62FEF7B2FF2620FEF71A
:10693000A1FF06B0BDE8F081003801400010024020
:1069400000080140580002401C1000200044004094
:1069500000140140000001402DE9F84F044690F872
:106960003E009A4616460D46202853D1FDB1F6B199
:1069700094F83C0001284DD0012084F83C00002709
:106980002764222084F83E002763FEF7C1FEA68517
:106990008146E685A0684FF48058404501D12069C2
:1069A00040B12E465FF0000584F83C7027E00120DE
:1069B000BDE8F88F0026F7E74B460022202120464D
:1069C000CDF800A001F072FA08B10320F0E726B17B
:1069D000A06840451BD038B108E020684068C0F38B
:1069E000080025F8020B07E0206980B120684068A4
:1069F00000F07F0006F8010BE08D401EE085E08D81
:106A00000028D9D1202084F83E000020D0E720685B
:106A10004068EFE70220CBE790F83E30202B0ED104
:106A200059B152B190F83C30012B08D0012380F8C5
:106A30003C300023036301F001BA012070470220BB
:106A400070477047704700002DE9F843044690F8FE
:106A50003D001F4616460D4620284CD1C5B1BEB19B
:106A600094F83C00012846D0012084F83C004FF007
:106A70000008C4F84080212084F83D00FEF748FE5D
:106A8000A6848146E684A068B0F5805F03D004E068
:106A90000120BDE8F883206928B12E465FF000058B
:106AA00084F83C800EE00026FAE78021204601F0C1
:106AB000FDF9A0B9AEB116F8010B21684860E08C71
:106AC000401EE084E08C4B464FF000020097002807
:106AD000EBD14FF04001204601F0E8F930B103203E
:106AE000D7E735F8020BC0F30800E6E7202084F86A
:106AF0003D000020CDE70220CBE7000070B5044642
:106B000090F83D00202830D169B362B394F83C007E
:106B100001282AD0012084F83C002162A284E2846A
:106B200000252564212084F83D00636B104898629D
:106B3000636B1048D862636B0F481863606B134631
:106B400045632668606B321DFEF7E0FB21686FF03D
:106B50004000086084F83C502068416941F08001A1
:106B60004161002070BD012070BD022070BD000099
:106B7000537C0208817C0208957B020870477047AD
:106B8000FEE708B5002000900222694641F2260087
:106B9000FDF780FA0222694641F22700FDF77AFAF2
:106BA00008BD00002DE9F84300252549B4200095D3
:106BB0008E1F4870234FB6F808102C4641F226006D
:106BC0004FF0010837F824208A422CD18DF801506B
:106BD00002226946FDF75EFA012002F009FA07EB8E
:106BE000840073894288694641F227009A4215D190
:106BF0008DF803500222891CFDF74CFA012002F0A7
:106C0000F7F93089A0F5E061E53905D05FF00500BE
:106C1000FDF7F4F9BDE8F8831120F9E702228DF8B9
:106C20000380891C08E0641CE4B2022CCAD3F1D1B1
:106C30008DF8018002226946FDF72CFAEAE7000090
:106C40000600002038CC0208810705D16421B0FB82
:106C5000F1F201FB120141B94FF4C871B0FBF1F23E
:106C600001FB120008B100207047012070470000AE
:106C700004F0B0F8FDF7AAFC04F0CCF840F6B83008
:106C800002F0B6F900F070FB00F0B2F90548FEF72B
:106C900072FDFDF787FDFDF7EFF8642002F0A8F91B
:106CA000F4E70000740F00203EB500211848009161
:106CB0000191164A029102609215826001240473C8
:106CC000017502254FF460220561C2614160FDF744
:106CD00001FF08B1FDF78EFB0620CDE9000404207A
:106CE000029069460A48FDF773FE08B1FDF782FB82
:106CF0000720CDE900050520029069460448FDF70C
:106D000067FE002801D0FDF775FB3EBD0024014061
:106D1000EC0E00201CB500240C4900940A48019494
:106D200008600846FEF759F808B1FDF763FB0094C8
:106D30000022694605480194FEF72CF8002801D08E
:106D4000FDF758FB1CBD000000740040600F0020E0
:106D5000194808B5416941F00101416140690022CB
:106D600000F00100009005210B20FEF791FD0B20A3
:106D7000FEF780FD002205210E20FEF789FD0E2082
:106D8000FEF778FD002205210F20FEF781FD0F2080
:106D9000FEF770FD002205211020FEF779FD10207E
:106DA000FEF768FD002205211120FEF771FDBDE808
:106DB00008401120FEF75EBD0010024030B5B5B0AE
:106DC00000252A952AA82B9502F01EF9394C01219D
:106DD00020622C952CA82D9502F022F960622E9548
:106DE00001212EA82F9502F01BF9334DA06200223D
:106DF000D5E90001CDE93001012130A802F0B4F954
:106E0000A061D5E90201CDE932010022012132A8B9
:106E100002F0AAF94FF47A75E0612946A06902F000
:106E2000C3F92946E06902F0BFF923491C22103159
:106E30006846FBF78AF90021684602F06BF91E49A3
:106E400020601C222C3107A8FBF77FF9002107A83E
:106E500002F060F9184960601C2248310EA8FBF767
:106E600074F900210EA802F055F91349A0601C2204
:106E7000643115A8FBF769F9002115A802F04AF959
:106E80000D49E0601C2280311CA8FBF75EF900214F
:106E90001CA802F03FF9084920611C229C3123A85C
:106EA000FBF753F9002123A802F034F9606135B0F3
:106EB00030BD00007C0100200CCD02082DE9F04F10
:106EC00085B000244548009401940294039481699C
:106ED00041F010018161816901F010010491816923
:106EE00041F004018161816901F00401049181692B
:106EF00041F020018161816901F0200104918169E3
:106F000041F0080181618069DFF8D49000F0080049
:106F10004FF410650490012229464846FEF7F3FB22
:106F2000DFF8C0A04FF4C058002241465046FEF79B
:106F3000EAFBDFF8B4B000220F215846FEF7E3FB6E
:106F4000002210212948FEF7DEFB4FF48057CDE9DF
:106F50000074694658460294FEF7D4FAF810CDE959
:106F60000004694650460294FEF7CCFA00950125CC
:106F70000226CDE90256694648460195FEF7C2FA57
:106F8000CDE90074694648460294FEF7BBFACDF895
:106F900000800396CDE9015469465046FEF7B2FAE7
:106FA0000D20CDE90005CDE9024669465846FEF7B9
:106FB000A9FA0320CDE90240CDE9006569465846AB
:106FC000FEF7A0FA1020CDE90005CDE9024669469A
:106FD0000648FEF797FA05B0BDE8F08F00100240B2
:106FE000000801400010014000140140000C014065
:106FF000094810B507490160062141604FF48071CE
:107000008160FEF78BFB002803D0BDE81040FDF740
:10701000F1B910BD00300040740F002070B502209F
:1070200060F307040A4B4FF4E1321D46214609483C
:1070300001F0A8F9214603202B4660F30701BDE8C3
:10704000704004484FF41652001D01F09BB9000037
:1070500005920208180200207CB5002427480194FC
:1070600025490094016047F6FF7141604FF480713B
:107070008160FEF7D1FF08B1FDF7BCF901211F487F
:10708000FEF7BAFF45F25005A84204D11C49C81CBE
:1070900001F0A2FF7CBD0C208DF804001E208DF8AD
:1070A00005008DF80640002201A91448FFF780F87A
:1070B00008B1FDF79FF901208DF8000006208DF83A
:1070C000010017208DF8020016208DF80300002221
:1070D00069460A48FFF70AF808B1FDF78BF9DDE9C0
:1070E000000103F0A9FD00F073FA2A4601210348CC
:1070F000FEF78AFF7CBD000000280040800F0020C2
:10710000A801002006498166064941660649C16614
:10711000064901674FF40072054903F061B80000A9
:107120008580020869800208EDAC020805AD0208FE
:10713000081200200C4810B50A4901604FF4E131F3
:107140004160002181600C22C160C0E904128161AC
:10715000C161FFF7FDFA002803D0BDE81040FDF73C
:1071600049B910BD00380140940F00200C4810B5FB
:107170000A4901604FF4E1314160002181600C2235
:10718000C160C0E904128161C161FFF7E1FA002822
:1071900003D0BDE81040FDF72DB910BD00440040FC
:1071A000D80F0020FEE7FEE770B5184C002594F8D4
:1071B0003700012809D084F8355000BF94F83A1000
:1071C0001348012910D0816A19E010496560183907
:1071D000208EC9898842F1D2E16A206805F008FB57
:1071E000ECD284F83750E9E7416A491C41625129E1
:1071F00002D1456284F83A50816A491C81620329B0
:1072000003D18562012084F83B0070BDBC020020E0
:1072100000000020010901EB810100F00F0000EBEC
:107220004100C0B2704770B50446FEF771FA0546DA
:107230004FF47A7606E0FEF76BFA401BB04201D9B4
:10724000032070BD206840688006F4D5206841683E
:1072500041F010014160002070BD000070B504468F
:107260000068416821F010014160FEF751FA0546BF
:107270004FF47A7607E000BFFEF74AFA401BB042AF
:1072800001D9032070BD206840688006F4D5002035
:1072900070BD0168086A496A89B241EA00407047D6
:1072A000006881698AB2C1698BB2816989B28A42F8
:1072B00003D0C06961F31F40704743EA0240704742
:1072C000F0B56424C1EBC1030927A500072603EB31
:1072D00001130329B3FBF7F100F5FA6011440144EF
:1072E0000AD2401EB0FBF4F201EB9001B0FBF5F0C6
:1072F000891A0844001D08E0B0FBF4F201EB90018C
:10730000B0FBF5F0891A0844801CB0FBF6F106FBCF
:107310001100C0B2F0BD70B50D4606460024FFF75F
:1073200082FF48B93168280C08623168A8B2486207
:107330003046FFF793FF00B10124204670BD70B5C1
:107340000D4606460024FFF76EFF48B93168280C49
:1073500088613168A8B2C8613046FFF77FFF00B18D
:107360000124204670BD000030B591B018220C49B0
:107370006846FAF7EAFE00244FEA0D0505EB4400E3
:1073800002220021FDF722F8641CE4B2182CF5D388
:107390001622A91C4FF48050FCF77CFE11B030BDC2
:1073A000A4020020F0B587B0364D00270646ADF8A0
:1073B00000703349686905F0D9F8334C3C2201ABC1
:1073C000E0602969314DB1FBF2F12186216801911C
:1073D00061680291A168CDE90310206905902868D1
:1073E0000A2200218069D0F8A8C2E0472868228ECE
:1073F0000A218069D0F8A43298472868A4F11805BA
:10740000017CE1B1D8B1077480696A460B21D0F8DC
:107410009C329847BDF80000B8B1E989814214D088
:10742000E88101202880022200216846FCF7CEFF77
:107430000222694641F20600FCF72CFE05E0806955
:10744000EA890B21D0F8A432984700250DF10407F2
:1074500007EB850004220021FCF7B8FF6D1CEDB29C
:10746000052DF5D3142201A93046FAF729FE208E06
:10747000000A307594F83000707507B01620F0BD22
:107480000000614500000020BC020020180200201E
:107490001FB51349134801F09FFD13A30FCB8DE8CF
:1074A0000F0010480E22C178D0318DF801104178BC
:1074B0008DF8031081788DF8051000788DF807009D
:1074C000074801788DF8091041788DF80B10807805
:1074D0008DF80D0069464FF49050FCF7DBFD1FBDA1
:1074E000A8010020AB010020070000000000000000
:1074F00000000000000000004FF47A74FCF700FF69
:10750000204601F075FDF9E710B5FDF7DFF90446F7
:107510000748408A05F058F9064905F027F8214642
:1075200004F0B6FF024918314860204610BD000043
:10753000A402002000007A44704700F005F80A20F9
:1075400001F056FDF9E7000010B5FDF7BFF901465F
:10755000114800F083FE114C206094F83C00012893
:107560004FF0000001D0A06010BDFDF72DF938B13B
:1075700005F02AF90A4905F06FF90A4904F088FF75
:1075800001460548183000F069FEA060D4E90010FB
:1075900005F060FA206110BD30000020BC02002020
:1075A00053B54A3CA00F353F10B50088074940BA93
:1075B000B0F5FA7F088207D80120088000F030F883
:1075C000BDE81040FFF7D0BE10BD0000A4020020AF
:1075D0001049CA6942F08052CA61CA6942F0006229
:1075E000CA610D490A6842F480720A600B490A6850
:1075F00042F010020A60094B82B218331A60000C84
:107600001A1F1060086820F01000086008688006E3
:10761000FCD5704700100240007000400428004074
:107620002DE9F041144D288A05F0CEF8044613499F
:1076300005F012F905F11806114F7061394605F091
:107640000BF905F089F8688020460E4905F004F929
:107650003946F06105F000F905F07EF8E880204633
:10766000094905F0F9F83946B06205F0F5F805F07A
:1076700073F8A881BDE8F081A4020020CDCC4C3D78
:1076800000002041CDCCCC3D0AD7A33D10B5044627
:10769000FFF7C6FF2046BDE8104000F001B800002B
:1076A0002DE9F0472B4D0646DFF8ACA0A88A2B4FFA
:1076B000DFF8AC9005F11804C0B305F085F8064674
:1076C000394605F0C9F8A0613046494605F0C4F8CE
:1076D00060623046234905F0BFF82062E06A10F08E
